{
  "address": "0x9f413bA7fba12E1102aDFb421390Fd6f5E4AbEd6",
  "abi": [
    {
      "inputs": [
        {
          "internalType": "address",
          "name": "_signer",
          "type": "address"
        },
        {
          "internalType": "bytes32",
          "name": "_dataHash",
          "type": "bytes32"
        },
        {
          "internalType": "bytes",
          "name": "_signature",
          "type": "bytes"
        }
      ],
      "name": "verify",
      "outputs": [
        {
          "internalType": "bool",
          "name": "",
          "type": "bool"
        }
      ],
      "stateMutability": "pure",
      "type": "function"
    },
    {
      "inputs": [
        {
          "internalType": "address",
          "name": "_signer",
          "type": "address"
        },
        {
          "internalType": "string",
          "name": "_data",
          "type": "string"
        },
        {
          "internalType": "bytes",
          "name": "_signature",
          "type": "bytes"
        }
      ],
      "name": "verifySignedProof",
      "outputs": [
        {
          "internalType": "bool",
          "name": "",
          "type": "bool"
        }
      ],
      "stateMutability": "pure",
      "type": "function"
    }
  ],
  "transactionHash": "0x377f2bc4afdacc5e7270d56de06454c9fcab7796bae61a341318f56872d75a7e",
  "args": [],
  "numDeployments": 1,
  "solcInputHash": "e03c71885da52b71bfb59f715f690cfe",
  "bytecode": "0x610ad7610053600b82828239805160001a607314610046577f4e487b7100000000000000000000000000000000000000000000000000000000600052600060045260246000fd5b30600052607381538281f3fe73000000000000000000000000000000000000000030146080604052600436106100405760003560e01c80631a86b550146100455780638a533e4c14610075575b600080fd5b61005f600480360381019061005a9190610584565b6100a5565b60405161006c9190610613565b60405180910390f35b61008f600480360381019061008a919061076f565b61013e565b60405161009c9190610613565b60405180910390f35b60008473ffffffffffffffffffffffffffffffffffffffff1661011d84848080601f016020809104026020016040519081016040528093929190818152602001838380828437600081840152601f19601f8201169050808301925050505050505061010f87610181565b6101b790919063ffffffff16565b73ffffffffffffffffffffffffffffffffffffffff16149050949350505050565b600080846040516020016101529190610870565b604051602081830303815290604052805190602001209050610176868286866100a5565b915050949350505050565b60007f19457468657265756d205369676e6564204d6573736167653a0a33320000000060005281601c52603c6000209050919050565b60008060006101c685856101de565b915091506101d38161022f565b819250505092915050565b600080604183510361021f5760008060006020860151925060408601519150606086015160001a905061021387828585610395565b94509450505050610228565b60006002915091505b9250929050565b6000600481111561024357610242610887565b5b81600481111561025657610255610887565b5b031561039257600160048111156102705761026f610887565b5b81600481111561028357610282610887565b5b036102c3576040517f08c379a00000000000000000000000000000000000000000000000000000000081526004016102ba90610913565b60405180910390fd5b600260048111156102d7576102d6610887565b5b8160048111156102ea576102e9610887565b5b0361032a576040517f08c379a00000000000000000000000000000000000000000000000000000000081526004016103219061097f565b60405180910390fd5b6003600481111561033e5761033d610887565b5b81600481111561035157610350610887565b5b03610391576040517f08c379a000000000000000000000000000000000000000000000000000000000815260040161038890610a11565b60405180910390fd5b5b50565b6000807f7fffffffffffffffffffffffffffffff5d576e7357a4501ddfe92f46681b20a08360001c11156103d057600060039150915061046e565b6000600187878787604051600081526020016040526040516103f59493929190610a5c565b6020604051602081039080840390855afa158015610417573d6000803e3d6000fd5b505050602060405103519050600073ffffffffffffffffffffffffffffffffffffffff168173ffffffffffffffffffffffffffffffffffffffff16036104655760006001925092505061046e565b80600092509250505b94509492505050565b6000604051905090565b600080fd5b600080fd5b600073ffffffffffffffffffffffffffffffffffffffff82169050919050565b60006104b68261048b565b9050919050565b6104c6816104ab565b81146104d157600080fd5b50565b6000813590506104e3816104bd565b92915050565b6000819050919050565b6104fc816104e9565b811461050757600080fd5b50565b600081359050610519816104f3565b92915050565b600080fd5b600080fd5b600080fd5b60008083601f8401126105445761054361051f565b5b8235905067ffffffffffffffff81111561056157610560610524565b5b60208301915083600182028301111561057d5761057c610529565b5b9250929050565b6000806000806060858703121561059e5761059d610481565b5b60006105ac878288016104d4565b94505060206105bd8782880161050a565b935050604085013567ffffffffffffffff8111156105de576105dd610486565b5b6105ea8782880161052e565b925092505092959194509250565b60008115159050919050565b61060d816105f8565b82525050565b60006020820190506106286000830184610604565b92915050565b600080fd5b6000601f19601f8301169050919050565b7f4e487b7100000000000000000000000000000000000000000000000000000000600052604160045260246000fd5b61067c82610633565b810181811067ffffffffffffffff8211171561069b5761069a610644565b5b80604052505050565b60006106ae610477565b90506106ba8282610673565b919050565b600067ffffffffffffffff8211156106da576106d9610644565b5b6106e382610633565b9050602081019050919050565b82818337600083830152505050565b600061071261070d846106bf565b6106a4565b90508281526020810184848401111561072e5761072d61062e565b5b6107398482856106f0565b509392505050565b600082601f8301126107565761075561051f565b5b81356107668482602086016106ff565b91505092915050565b6000806000806060858703121561078957610788610481565b5b6000610797878288016104d4565b945050602085013567ffffffffffffffff8111156107b8576107b7610486565b5b6107c487828801610741565b935050604085013567ffffffffffffffff8111156107e5576107e4610486565b5b6107f18782880161052e565b925092505092959194509250565b600081519050919050565b600081905092915050565b60005b83811015610833578082015181840152602081019050610818565b60008484015250505050565b600061084a826107ff565b610854818561080a565b9350610864818560208601610815565b80840191505092915050565b600061087c828461083f565b915081905092915050565b7f4e487b7100000000000000000000000000000000000000000000000000000000600052602160045260246000fd5b600082825260208201905092915050565b7f45434453413a20696e76616c6964207369676e61747572650000000000000000600082015250565b60006108fd6018836108b6565b9150610908826108c7565b602082019050919050565b6000602082019050818103600083015261092c816108f0565b9050919050565b7f45434453413a20696e76616c6964207369676e6174757265206c656e67746800600082015250565b6000610969601f836108b6565b915061097482610933565b602082019050919050565b600060208201905081810360008301526109988161095c565b9050919050565b7f45434453413a20696e76616c6964207369676e6174757265202773272076616c60008201527f7565000000000000000000000000000000000000000000000000000000000000602082015250565b60006109fb6022836108b6565b9150610a068261099f565b604082019050919050565b60006020820190508181036000830152610a2a816109ee565b9050919050565b610a3a816104e9565b82525050565b600060ff82169050919050565b610a5681610a40565b82525050565b6000608082019050610a716000830187610a31565b610a7e6020830186610a4d565b610a8b6040830185610a31565b610a986060830184610a31565b9594505050505056fea264697066735822122009acbb3159f383df5a4618daf61049487c18ad2f451e72e49c1c165cbd955c0164736f6c63430008120033",
  "devdoc": {
    "kind": "dev",
    "methods": {
      "verify(address,bytes32,bytes)": {
        "params": {
          "_dataHash": "Hash of the data that was signed",
          "_signature": "Signature of the data",
          "_signer": "Signer of the data"
        },
        "returns": {
          "_0": "isValid Is signature valid or not"
        }
      },
      "verifySignedProof(address,string,bytes)": {
        "params": {
          "_data": "Raw Proof-of-Authority stringified JSON object that the signer signs.              Note: it may be the output of Proofs.getProofOfSignatureData function",
          "_signature": "Signature of the {_data}",
          "_signer": "Signer of the data"
        },
        "returns": {
          "_0": "isValid Is signature valid or not"
        }
      }
    },
    "version": 1
  },
  "userdoc": {
    "kind": "user",
    "methods": {
      "verify(address,bytes32,bytes)": {
        "notice": "Verify any Ethereum signature of any data"
      },
      "verifySignedProof(address,string,bytes)": {
        "notice": "Verify Proof-of-Authority or Proof-of-Signature signature"
      }
    },
    "notice": "Verifies Proof-of-Authority and Proof-of-Signature validity. May be used to verify any Ethereum signature.",
    "version": 1
  },
  "storageLayout": {
    "storage": [],
    "types": null
  }
}