{
  "address": "0x453894A722ac8408471A349161A7d4f59374124A",
  "abi": [
    {
      "inputs": [
        {
          "internalType": "address",
          "name": "_proofsMetadata",
          "type": "address"
        },
        {
          "internalType": "address",
          "name": "_admin",
          "type": "address"
        }
      ],
      "stateMutability": "nonpayable",
      "type": "constructor"
    },
    {
      "anonymous": false,
      "inputs": [
        {
          "components": [
            {
              "internalType": "string",
              "name": "name",
              "type": "string"
            },
            {
              "internalType": "address",
              "name": "from",
              "type": "address"
            },
            {
              "internalType": "string",
              "name": "agreementFileCID",
              "type": "string"
            },
            {
              "components": [
                {
                  "internalType": "address",
                  "name": "addr",
                  "type": "address"
                },
                {
                  "internalType": "string",
                  "name": "metadata",
                  "type": "string"
                }
              ],
              "internalType": "struct IProofs.Signer[]",
              "name": "signers",
              "type": "tuple[]"
            },
            {
              "internalType": "string",
              "name": "app",
              "type": "string"
            },
            {
              "internalType": "uint64",
              "name": "timestamp",
              "type": "uint64"
            },
            {
              "internalType": "string",
              "name": "metadata",
              "type": "string"
            }
          ],
          "indexed": true,
          "internalType": "struct IProofs.ProofOfAuthorityMsg",
          "name": "message",
          "type": "tuple"
        }
      ],
      "name": "NewProofOfAuthority",
      "type": "event"
    },
    {
      "anonymous": false,
      "inputs": [
        {
          "indexed": true,
          "internalType": "address",
          "name": "previousOwner",
          "type": "address"
        },
        {
          "indexed": true,
          "internalType": "address",
          "name": "newOwner",
          "type": "address"
        }
      ],
      "name": "OwnershipTransferred",
      "type": "event"
    },
    {
      "anonymous": false,
      "inputs": [
        {
          "indexed": true,
          "internalType": "string",
          "name": "agreementFileCID",
          "type": "string"
        },
        {
          "indexed": false,
          "internalType": "string",
          "name": "proofOfAuthorityCID",
          "type": "string"
        },
        {
          "indexed": false,
          "internalType": "string",
          "name": "proofCID",
          "type": "string"
        },
        {
          "indexed": false,
          "internalType": "string",
          "name": "proofJSON",
          "type": "string"
        }
      ],
      "name": "ProofOfAgreementEvent",
      "type": "event"
    },
    {
      "anonymous": false,
      "inputs": [
        {
          "indexed": true,
          "internalType": "address",
          "name": "signer",
          "type": "address"
        },
        {
          "indexed": false,
          "internalType": "bytes",
          "name": "signature",
          "type": "bytes"
        },
        {
          "indexed": true,
          "internalType": "string",
          "name": "agreementFileCID",
          "type": "string"
        },
        {
          "indexed": false,
          "internalType": "string",
          "name": "proofCID",
          "type": "string"
        },
        {
          "indexed": false,
          "internalType": "string",
          "name": "proofJSON",
          "type": "string"
        }
      ],
      "name": "ProofOfSignatureEvent",
      "type": "event"
    },
    {
      "inputs": [],
      "name": "domain",
      "outputs": [
        {
          "internalType": "string",
          "name": "name",
          "type": "string"
        },
        {
          "internalType": "string",
          "name": "version",
          "type": "string"
        }
      ],
      "stateMutability": "view",
      "type": "function"
    },
    {
      "inputs": [
        {
          "internalType": "string",
          "name": "",
          "type": "string"
        },
        {
          "internalType": "string",
          "name": "",
          "type": "string"
        }
      ],
      "name": "finalProofs",
      "outputs": [
        {
          "internalType": "string",
          "name": "",
          "type": "string"
        }
      ],
      "stateMutability": "view",
      "type": "function"
    },
    {
      "inputs": [
        {
          "components": [
            {
              "internalType": "string",
              "name": "name",
              "type": "string"
            },
            {
              "internalType": "address",
              "name": "from",
              "type": "address"
            },
            {
              "internalType": "string",
              "name": "agreementFileCID",
              "type": "string"
            },
            {
              "components": [
                {
                  "internalType": "address",
                  "name": "addr",
                  "type": "address"
                },
                {
                  "internalType": "string",
                  "name": "metadata",
                  "type": "string"
                }
              ],
              "internalType": "struct IProofs.Signer[]",
              "name": "signers",
              "type": "tuple[]"
            },
            {
              "internalType": "string",
              "name": "app",
              "type": "string"
            },
            {
              "internalType": "uint64",
              "name": "timestamp",
              "type": "uint64"
            },
            {
              "internalType": "string",
              "name": "metadata",
              "type": "string"
            }
          ],
          "internalType": "struct IProofs.ProofOfAuthorityMsg",
          "name": "message",
          "type": "tuple"
        }
      ],
      "name": "get",
      "outputs": [
        {
          "components": [
            {
              "internalType": "bytes",
              "name": "sig",
              "type": "bytes"
            },
            {
              "internalType": "string",
              "name": "version",
              "type": "string"
            },
            {
              "components": [
                {
                  "internalType": "string",
                  "name": "name",
                  "type": "string"
                },
                {
                  "internalType": "address",
                  "name": "from",
                  "type": "address"
                },
                {
                  "internalType": "string",
                  "name": "agreementFileCID",
                  "type": "string"
                },
                {
                  "components": [
                    {
                      "internalType": "address",
                      "name": "addr",
                      "type": "address"
                    },
                    {
                      "internalType": "string",
                      "name": "metadata",
                      "type": "string"
                    }
                  ],
                  "internalType": "struct IProofs.Signer[]",
                  "name": "signers",
                  "type": "tuple[]"
                },
                {
                  "internalType": "string",
                  "name": "app",
                  "type": "string"
                },
                {
                  "internalType": "uint64",
                  "name": "timestamp",
                  "type": "uint64"
                },
                {
                  "internalType": "string",
                  "name": "metadata",
                  "type": "string"
                }
              ],
              "internalType": "struct IProofs.ProofOfAuthorityMsg",
              "name": "message",
              "type": "tuple"
            }
          ],
          "internalType": "struct IProofs.ProofOfAuthorityShrinked",
          "name": "",
          "type": "tuple"
        }
      ],
      "stateMutability": "view",
      "type": "function"
    },
    {
      "inputs": [
        {
          "components": [
            {
              "internalType": "address",
              "name": "addr",
              "type": "address"
            },
            {
              "internalType": "string",
              "name": "metadata",
              "type": "string"
            }
          ],
          "internalType": "struct IProofs.Signer[]",
          "name": "_input",
          "type": "tuple[]"
        }
      ],
      "name": "hash",
      "outputs": [
        {
          "internalType": "bytes32",
          "name": "",
          "type": "bytes32"
        }
      ],
      "stateMutability": "pure",
      "type": "function"
    },
    {
      "inputs": [
        {
          "components": [
            {
              "internalType": "string",
              "name": "name",
              "type": "string"
            },
            {
              "internalType": "address",
              "name": "from",
              "type": "address"
            },
            {
              "internalType": "string",
              "name": "agreementFileCID",
              "type": "string"
            },
            {
              "components": [
                {
                  "internalType": "address",
                  "name": "addr",
                  "type": "address"
                },
                {
                  "internalType": "string",
                  "name": "metadata",
                  "type": "string"
                }
              ],
              "internalType": "struct IProofs.Signer[]",
              "name": "signers",
              "type": "tuple[]"
            },
            {
              "internalType": "string",
              "name": "app",
              "type": "string"
            },
            {
              "internalType": "uint64",
              "name": "timestamp",
              "type": "uint64"
            },
            {
              "internalType": "string",
              "name": "metadata",
              "type": "string"
            }
          ],
          "internalType": "struct IProofs.ProofOfAuthorityMsg",
          "name": "_input",
          "type": "tuple"
        }
      ],
      "name": "hash",
      "outputs": [
        {
          "internalType": "bytes32",
          "name": "",
          "type": "bytes32"
        }
      ],
      "stateMutability": "pure",
      "type": "function"
    },
    {
      "inputs": [
        {
          "internalType": "address",
          "name": "",
          "type": "address"
        },
        {
          "internalType": "uint256",
          "name": "",
          "type": "uint256"
        }
      ],
      "name": "myProofKeys",
      "outputs": [
        {
          "internalType": "bytes32",
          "name": "",
          "type": "bytes32"
        }
      ],
      "stateMutability": "view",
      "type": "function"
    },
    {
      "inputs": [],
      "name": "owner",
      "outputs": [
        {
          "internalType": "address",
          "name": "",
          "type": "address"
        }
      ],
      "stateMutability": "view",
      "type": "function"
    },
    {
      "inputs": [
        {
          "internalType": "bytes32",
          "name": "",
          "type": "bytes32"
        }
      ],
      "name": "poaData",
      "outputs": [
        {
          "internalType": "string",
          "name": "",
          "type": "string"
        }
      ],
      "stateMutability": "view",
      "type": "function"
    },
    {
      "inputs": [
        {
          "internalType": "bytes32",
          "name": "",
          "type": "bytes32"
        }
      ],
      "name": "poagData",
      "outputs": [
        {
          "internalType": "string",
          "name": "",
          "type": "string"
        }
      ],
      "stateMutability": "view",
      "type": "function"
    },
    {
      "inputs": [
        {
          "internalType": "bytes32",
          "name": "",
          "type": "bytes32"
        }
      ],
      "name": "posData",
      "outputs": [
        {
          "internalType": "string",
          "name": "",
          "type": "string"
        }
      ],
      "stateMutability": "view",
      "type": "function"
    },
    {
      "inputs": [],
      "name": "proofsMetadata",
      "outputs": [
        {
          "internalType": "address",
          "name": "",
          "type": "address"
        }
      ],
      "stateMutability": "view",
      "type": "function"
    },
    {
      "inputs": [
        {
          "components": [
            {
              "internalType": "string",
              "name": "name",
              "type": "string"
            },
            {
              "internalType": "address",
              "name": "from",
              "type": "address"
            },
            {
              "internalType": "string",
              "name": "agreementFileCID",
              "type": "string"
            },
            {
              "components": [
                {
                  "internalType": "address",
                  "name": "addr",
                  "type": "address"
                },
                {
                  "internalType": "string",
                  "name": "metadata",
                  "type": "string"
                }
              ],
              "internalType": "struct IProofs.Signer[]",
              "name": "signers",
              "type": "tuple[]"
            },
            {
              "internalType": "string",
              "name": "app",
              "type": "string"
            },
            {
              "internalType": "uint64",
              "name": "timestamp",
              "type": "uint64"
            },
            {
              "internalType": "string",
              "name": "metadata",
              "type": "string"
            }
          ],
          "internalType": "struct IProofs.ProofOfAuthorityMsg",
          "name": "message",
          "type": "tuple"
        },
        {
          "internalType": "bytes",
          "name": "signature",
          "type": "bytes"
        }
      ],
      "name": "recover",
      "outputs": [
        {
          "internalType": "address",
          "name": "",
          "type": "address"
        }
      ],
      "stateMutability": "pure",
      "type": "function"
    },
    {
      "inputs": [],
      "name": "renounceOwnership",
      "outputs": [],
      "stateMutability": "nonpayable",
      "type": "function"
    },
    {
      "inputs": [
        {
          "components": [
            {
              "internalType": "string",
              "name": "name",
              "type": "string"
            },
            {
              "internalType": "address",
              "name": "from",
              "type": "address"
            },
            {
              "internalType": "string",
              "name": "agreementFileCID",
              "type": "string"
            },
            {
              "components": [
                {
                  "internalType": "address",
                  "name": "addr",
                  "type": "address"
                },
                {
                  "internalType": "string",
                  "name": "metadata",
                  "type": "string"
                }
              ],
              "internalType": "struct IProofs.Signer[]",
              "name": "signers",
              "type": "tuple[]"
            },
            {
              "internalType": "string",
              "name": "app",
              "type": "string"
            },
            {
              "internalType": "uint64",
              "name": "timestamp",
              "type": "uint64"
            },
            {
              "internalType": "string",
              "name": "metadata",
              "type": "string"
            }
          ],
          "internalType": "struct IProofs.ProofOfAuthorityMsg",
          "name": "message",
          "type": "tuple"
        },
        {
          "internalType": "bytes",
          "name": "signature",
          "type": "bytes"
        },
        {
          "internalType": "string",
          "name": "version",
          "type": "string"
        }
      ],
      "name": "store",
      "outputs": [],
      "stateMutability": "nonpayable",
      "type": "function"
    },
    {
      "inputs": [
        {
          "internalType": "address",
          "name": "newOwner",
          "type": "address"
        }
      ],
      "name": "transferOwnership",
      "outputs": [],
      "stateMutability": "nonpayable",
      "type": "function"
    }
  ],
  "transactionHash": "0xdcceb812868d4705051dafd1a22e8b6c69ebe968ee66facf55172a64c11b8139",
  "args": [
    "0xf282509F9C5ACe2666163795119C52e738D0e198",
    "0xde358FCcA54Fa226aE16Ac3927487260dAfc3835"
  ],
  "numDeployments": 1,
  "solcInputHash": "e03c71885da52b71bfb59f715f690cfe",
  "bytecode": "0x608060405260405180604001604052806040518060400160405280600781526020017f64616f7369676e0000000000000000000000000000000000000000000000000081525081526020016040518060400160405280600581526020017f302e312e30000000000000000000000000000000000000000000000000000000815250815250600860008201518160000190816200009c9190620006cb565b506020820151816001019081620000b49190620006cb565b505050348015620000c457600080fd5b5060405162004129380380620041298339818101604052810190620000ea91906200081c565b6200010a620000fe6200026460201b60201c565b6200026c60201b60201c565b62000120826200033060201b62000bbb1760201c565b8015620001c857508173ffffffffffffffffffffffffffffffffffffffff166301ffc9a77f6a0e321e000000000000000000000000000000000000000000000000000000006040518263ffffffff1660e01b8152600401620001839190620008a0565b602060405180830381865afa158015620001a1573d6000803e3d6000fd5b505050506040513d601f19601f82011682018060405250810190620001c79190620008fa565b5b6200020a576040517f08c379a000000000000000000000000000000000000000000000000000000000815260040162000201906200098d565b60405180910390fd5b81600160006101000a81548173ffffffffffffffffffffffffffffffffffffffff021916908373ffffffffffffffffffffffffffffffffffffffff1602179055506200025c816200026c60201b60201c565b5050620009af565b600033905090565b60008060009054906101000a900473ffffffffffffffffffffffffffffffffffffffff169050816000806101000a81548173ffffffffffffffffffffffffffffffffffffffff021916908373ffffffffffffffffffffffffffffffffffffffff1602179055508173ffffffffffffffffffffffffffffffffffffffff168173ffffffffffffffffffffffffffffffffffffffff167f8be0079c531659141344cd1fd0a4f28419497f9722a3daafe3b4186f6b6457e060405160405180910390a35050565b600062000364827f01ffc9a7000000000000000000000000000000000000000000000000000000006200038e60201b60201c565b8015620003875750620003858263ffffffff60e01b6200038e60201b60201c565b155b9050919050565b6000806301ffc9a760e01b83604051602401620003ac9190620008a0565b604051602081830303815290604052907bffffffffffffffffffffffffffffffffffffffffffffffffffffffff19166020820180517bffffffffffffffffffffffffffffffffffffffffffffffffffffffff838183161783525050505090506000806000602060008551602087018a617530fa92503d9150600051905082801562000438575060208210155b8015620004455750600081115b94505050505092915050565b600081519050919050565b7f4e487b7100000000000000000000000000000000000000000000000000000000600052604160045260246000fd5b7f4e487b7100000000000000000000000000000000000000000000000000000000600052602260045260246000fd5b60006002820490506001821680620004d357607f821691505b602082108103620004e957620004e86200048b565b5b50919050565b60008190508160005260206000209050919050565b60006020601f8301049050919050565b600082821b905092915050565b600060088302620005537fffffffffffffffffffffffffffffffffffffffffffffffffffffffffffffffff8262000514565b6200055f868362000514565b95508019841693508086168417925050509392505050565b6000819050919050565b6000819050919050565b6000620005ac620005a6620005a08462000577565b62000581565b62000577565b9050919050565b6000819050919050565b620005c8836200058b565b620005e0620005d782620005b3565b84845462000521565b825550505050565b600090565b620005f7620005e8565b62000604818484620005bd565b505050565b5b818110156200062c5762000620600082620005ed565b6001810190506200060a565b5050565b601f8211156200067b576200064581620004ef565b620006508462000504565b8101602085101562000660578190505b620006786200066f8562000504565b83018262000609565b50505b505050565b600082821c905092915050565b6000620006a06000198460080262000680565b1980831691505092915050565b6000620006bb83836200068d565b9150826002028217905092915050565b620006d68262000451565b67ffffffffffffffff811115620006f257620006f16200045c565b5b620006fe8254620004ba565b6200070b82828562000630565b600060209050601f8311600181146200074357600084156200072e578287015190505b6200073a8582620006ad565b865550620007aa565b601f1984166200075386620004ef565b60005b828110156200077d5784890151825560018201915060208501945060208101905062000756565b868310156200079d578489015162000799601f8916826200068d565b8355505b6001600288020188555050505b505050505050565b600080fd5b600073ffffffffffffffffffffffffffffffffffffffff82169050919050565b6000620007e482620007b7565b9050919050565b620007f681620007d7565b81146200080257600080fd5b50565b6000815190506200081681620007eb565b92915050565b60008060408385031215620008365762000835620007b2565b5b6000620008468582860162000805565b9250506020620008598582860162000805565b9150509250929050565b60007fffffffff0000000000000000000000000000000000000000000000000000000082169050919050565b6200089a8162000863565b82525050565b6000602082019050620008b760008301846200088f565b92915050565b60008115159050919050565b620008d481620008bd565b8114620008e057600080fd5b50565b600081519050620008f481620008c9565b92915050565b600060208284031215620009135762000912620007b2565b5b60006200092384828501620008e3565b91505092915050565b600082825260208201905092915050565b7f4d75737420737570706f7274204950726f6f66734d6574616461746100000000600082015250565b600062000975601c836200092c565b915062000982826200093d565b602082019050919050565b60006020820190508181036000830152620009a88162000966565b9050919050565b61376a80620009bf6000396000f3fe608060405234801561001057600080fd5b50600436106100f55760003560e01c806376fb3efd11610097578063bdc5779e11610066578063bdc5779e146102ac578063c2fb26a6146102dc578063f2fde38b146102fb578063fdf925e514610317576100f5565b806376fb3efd146102105780638da5cb5b14610240578063acbb20a61461025e578063bbc1e2f71461027c576100f5565b8063620622a1116100d3578063620622a11461018a5780636d0b7fe0146101a65780636e0bb65d146101d6578063715018a614610206576100f5565b80631afee7f5146100fa5780635411cdad1461012a5780635e3e4f941461015a575b600080fd5b610114600480360381019061010f91906119de565b610347565b6040516101219190611a40565b60405180910390f35b610144600480360381019061013f9190611c7c565b6103c1565b6040516101519190611d03565b60405180910390f35b610174600480360381019061016f9190611d1e565b6104a5565b604051610181919061206e565b60405180910390f35b6101a4600480360381019061019f9190612090565b610589565b005b6101c060048036038101906101bb9190612163565b610626565b6040516101cd91906121da565b60405180910390f35b6101f060048036038101906101eb9190612163565b6106c6565b6040516101fd91906121da565b60405180910390f35b61020e610766565b005b61022a60048036038101906102259190612163565b61077a565b60405161023791906121da565b60405180910390f35b61024861081a565b6040516102559190611d03565b60405180910390f35b610266610843565b6040516102739190611d03565b60405180910390f35b61029660048036038101906102919190612232565b610869565b6040516102a39190611a40565b60405180910390f35b6102c660048036038101906102c19190611d1e565b61089a565b6040516102d39190611a40565b60405180910390f35b6102e461093d565b6040516102f2929190612272565b60405180910390f35b610315600480360381019061031091906122a9565b610a5f565b005b610331600480360381019061032c91906122d6565b610ae2565b60405161033e91906121da565b60405180910390f35b6000606060005b83518110156103b0578161037b85838151811061036e5761036d61234e565b5b6020026020010151610c08565b60405160200161038c9291906123da565b604051602081830303815290604052915080806103a890612431565b91505061034e565b508080519060200120915050919050565b60008061044b60405180604001604052806040518060400160405280600781526020017f64616f7369676e0000000000000000000000000000000000000000000000000081525081526020016040518060400160405280600581526020017f302e312e30000000000000000000000000000000000000000000000000000000815250815250610c70565b905060006104588561089a565b90506000828260405160200161046f9291906124d0565b60405160208183030381529060405280519060200120905061049a8582610cdf90919063ffffffff16565b935050505092915050565b6104ad611646565b60066000836040516020016104c291906125bf565b60405160208183030381529060405280519060200120815260200190815260200160002080546104f190612610565b80601f016020809104026020016040519081016040528092919081815260200182805461051d90612610565b801561056a5780601f1061053f5761010080835404028352916020019161056a565b820191906000526020600020905b81548152906001019060200180831161054d57829003601f168201915b50505050508060200190518101906105829190612a64565b9050919050565b826020015173ffffffffffffffffffffffffffffffffffffffff166105ae84846103c1565b73ffffffffffffffffffffffffffffffffffffffff1614610604576040517f08c379a00000000000000000000000000000000000000000000000000000000081526004016105fb90612af9565b60405180910390fd5b61060d83610d06565b61061657600080fd5b610621838383611014565b505050565b6004602052806000526040600020600091509050805461064590612610565b80601f016020809104026020016040519081016040528092919081815260200182805461067190612610565b80156106be5780601f10610693576101008083540402835291602001916106be565b820191906000526020600020905b8154815290600101906020018083116106a157829003601f168201915b505050505081565b600360205280600052604060002060009150905080546106e590612610565b80601f016020809104026020016040519081016040528092919081815260200182805461071190612610565b801561075e5780601f106107335761010080835404028352916020019161075e565b820191906000526020600020905b81548152906001019060200180831161074157829003601f168201915b505050505081565b61076e61114b565b61077860006111c9565b565b6005602052806000526040600020600091509050805461079990612610565b80601f01602080910402602001604051908101604052809291908181526020018280546107c590612610565b80156108125780601f106107e757610100808354040283529160200191610812565b820191906000526020600020905b8154815290600101906020018083116107f557829003601f168201915b505050505081565b60008060009054906101000a900473ffffffffffffffffffffffffffffffffffffffff16905090565b600160009054906101000a900473ffffffffffffffffffffffffffffffffffffffff1681565b6007602052816000526040600020818154811061088557600080fd5b90600052602060002001600091509150505481565b6000807f2e1787b39b12d39a11d61d71f3da25d1061d7f8a84df10ac9bb5505fb6756e7e83600001518051906020012084602001518560400151805190602001206108e88760600151610347565b8760800151805190602001208860a001518960c001518051906020012060405160200161091c989796959493929190612b28565b60405160208183030381529060405290508080519060200120915050919050565b600880600001805461094e90612610565b80601f016020809104026020016040519081016040528092919081815260200182805461097a90612610565b80156109c75780601f1061099c576101008083540402835291602001916109c7565b820191906000526020600020905b8154815290600101906020018083116109aa57829003601f168201915b5050505050908060010180546109dc90612610565b80601f0160208091040260200160405190810160405280929190818152602001828054610a0890612610565b8015610a555780601f10610a2a57610100808354040283529160200191610a55565b820191906000526020600020905b815481529060010190602001808311610a3857829003601f168201915b5050505050905082565b610a6761114b565b600073ffffffffffffffffffffffffffffffffffffffff168173ffffffffffffffffffffffffffffffffffffffff1603610ad6576040517f08c379a0000000000000000000000000000000000000000000000000000000008152600401610acd90612c18565b60405180910390fd5b610adf816111c9565b50565b60028280516020810182018051848252602083016020850120818352809550505050505081805160208101820180518482526020830160208501208183528095505050505050600091509150508054610b3a90612610565b80601f0160208091040260200160405190810160405280929190818152602001828054610b6690612610565b8015610bb35780601f10610b8857610100808354040283529160200191610bb3565b820191906000526020600020905b815481529060010190602001808311610b9657829003601f168201915b505050505081565b6000610be7827f01ffc9a70000000000000000000000000000000000000000000000000000000061128d565b8015610c015750610bff8263ffffffff60e01b61128d565b155b9050919050565b6000807f67aa40d26f889f44ec5fecd21b812b43af0974bbc5e74283b01e36ceb272966f8360000151846020015180519060200120604051602001610c4f93929190612c38565b60405160208183030381529060405290508080519060200120915050919050565b6000807fb03948446334eb9b2196d5eb166f69b9d49403eb4a12f36de8d3f9f3cb8e15c3836000015180519060200120846020015180519060200120604051602001610cbe93929190612c6f565b60405160208183030381529060405290508080519060200120915050919050565b6000806000610cee858561134c565b91509150610cfb8161139d565b819250505092915050565b6000610d546040518060400160405280601281526020017f50726f6f662d6f662d417574686f726974790000000000000000000000000000815250836000015161150390919063ffffffff16565b610d93576040517f08c379a0000000000000000000000000000000000000000000000000000000008152600401610d8a90612cf2565b60405180910390fd5b602e826040015173377662a8588c20Bf94B3b5685d096FE1CdF70Ef663436a66e790916040518263ffffffff1660e01b8152600401610dd29190612d5c565b602060405180830381865af4158015610def573d6000803e3d6000fd5b505050506040513d601f19601f82011682018060405250810190610e139190612d93565b14610e53576040517f08c379a0000000000000000000000000000000000000000000000000000000008152600401610e4a90612e0c565b60405180910390fd5b610e9f6040518060400160405280600781526020017f64616f7369676e00000000000000000000000000000000000000000000000000815250836080015161150390919063ffffffff16565b610ede576040517f08c379a0000000000000000000000000000000000000000000000000000000008152600401610ed590612e78565b60405180910390fd5b428260a0015167ffffffffffffffff1611158015610f175750612a3042610f059190612e98565b8260a0015167ffffffffffffffff1610155b610f56576040517f08c379a0000000000000000000000000000000000000000000000000000000008152600401610f4d90612f18565b60405180910390fd5b60005b82606001515181101561100a57600073ffffffffffffffffffffffffffffffffffffffff1683606001518281518110610f9557610f9461234e565b5b60200260200101516000015173ffffffffffffffffffffffffffffffffffffffff1603610ff7576040517f08c379a0000000000000000000000000000000000000000000000000000000008152600401610fee90612f84565b60405180910390fd5b808061100290612431565b915050610f59565b5060019050919050565b60008360405160200161102791906125bf565b60405160208183030381529060405280519060200120905060405180606001604052808481526020018381526020018581525060405160200161106a919061206e565b6040516020818303038152906040526006600083815260200190815260200160002090816110989190613150565b5060076000856020015173ffffffffffffffffffffffffffffffffffffffff1673ffffffffffffffffffffffffffffffffffffffff168152602001908152602001600020819080600181540180825580915050600190039060005260206000200160009091909190915055836040516111119190613419565b60405180910390207fa964d7c3eb8968ce8f7c6c887dd351c670e547ba865ae23ab238389982000c0260405160405180910390a250505050565b61115361155c565b73ffffffffffffffffffffffffffffffffffffffff1661117161081a565b73ffffffffffffffffffffffffffffffffffffffff16146111c7576040517f08c379a00000000000000000000000000000000000000000000000000000000081526004016111be9061347c565b60405180910390fd5b565b60008060009054906101000a900473ffffffffffffffffffffffffffffffffffffffff169050816000806101000a81548173ffffffffffffffffffffffffffffffffffffffff021916908373ffffffffffffffffffffffffffffffffffffffff1602179055508173ffffffffffffffffffffffffffffffffffffffff168173ffffffffffffffffffffffffffffffffffffffff167f8be0079c531659141344cd1fd0a4f28419497f9722a3daafe3b4186f6b6457e060405160405180910390a35050565b6000806301ffc9a760e01b836040516024016112a991906134d7565b604051602081830303815290604052907bffffffffffffffffffffffffffffffffffffffffffffffffffffffff19166020820180517bffffffffffffffffffffffffffffffffffffffffffffffffffffffff838183161783525050505090506000806000602060008551602087018a617530fa92503d91506000519050828015611334575060208210155b80156113405750600081115b94505050505092915050565b600080604183510361138d5760008060006020860151925060408601519150606086015160001a905061138187828585611564565b94509450505050611396565b60006002915091505b9250929050565b600060048111156113b1576113b06134f2565b5b8160048111156113c4576113c36134f2565b5b031561150057600160048111156113de576113dd6134f2565b5b8160048111156113f1576113f06134f2565b5b03611431576040517f08c379a00000000000000000000000000000000000000000000000000000000081526004016114289061356d565b60405180910390fd5b60026004811115611445576114446134f2565b5b816004811115611458576114576134f2565b5b03611498576040517f08c379a000000000000000000000000000000000000000000000000000000000815260040161148f906135d9565b60405180910390fd5b600360048111156114ac576114ab6134f2565b5b8160048111156114bf576114be6134f2565b5b036114ff576040517f08c379a00000000000000000000000000000000000000000000000000000000081526004016114f69061366b565b60405180910390fd5b5b50565b60008160405160200161151691906136bc565b604051602081830303815290604052805190602001208360405160200161153d91906136bc565b6040516020818303038152906040528051906020012014905092915050565b600033905090565b6000807f7fffffffffffffffffffffffffffffff5d576e7357a4501ddfe92f46681b20a08360001c111561159f57600060039150915061163d565b6000600187878787604051600081526020016040526040516115c494939291906136ef565b6020604051602081039080840390855afa1580156115e6573d6000803e3d6000fd5b505050602060405103519050600073ffffffffffffffffffffffffffffffffffffffff168173ffffffffffffffffffffffffffffffffffffffff16036116345760006001925092505061163d565b80600092509250505b94509492505050565b6040518060600160405280606081526020016060815260200161166761166d565b81525090565b6040518060e0016040528060608152602001600073ffffffffffffffffffffffffffffffffffffffff168152602001606081526020016060815260200160608152602001600067ffffffffffffffff168152602001606081525090565b6000604051905090565b600080fd5b600080fd5b600080fd5b6000601f19601f8301169050919050565b7f4e487b7100000000000000000000000000000000000000000000000000000000600052604160045260246000fd5b61172c826116e3565b810181811067ffffffffffffffff8211171561174b5761174a6116f4565b5b80604052505050565b600061175e6116ca565b905061176a8282611723565b919050565b600067ffffffffffffffff82111561178a576117896116f4565b5b602082029050602081019050919050565b600080fd5b600080fd5b600080fd5b600073ffffffffffffffffffffffffffffffffffffffff82169050919050565b60006117d5826117aa565b9050919050565b6117e5816117ca565b81146117f057600080fd5b50565b600081359050611802816117dc565b92915050565b600080fd5b600067ffffffffffffffff821115611828576118276116f4565b5b611831826116e3565b9050602081019050919050565b82818337600083830152505050565b600061186061185b8461180d565b611754565b90508281526020810184848401111561187c5761187b611808565b5b61188784828561183e565b509392505050565b600082601f8301126118a4576118a36116de565b5b81356118b484826020860161184d565b91505092915050565b6000604082840312156118d3576118d26117a0565b5b6118dd6040611754565b905060006118ed848285016117f3565b600083015250602082013567ffffffffffffffff811115611911576119106117a5565b5b61191d8482850161188f565b60208301525092915050565b600061193c6119378461176f565b611754565b9050808382526020820190506020840283018581111561195f5761195e61179b565b5b835b818110156119a657803567ffffffffffffffff811115611984576119836116de565b5b80860161199189826118bd565b85526020850194505050602081019050611961565b5050509392505050565b600082601f8301126119c5576119c46116de565b5b81356119d5848260208601611929565b91505092915050565b6000602082840312156119f4576119f36116d4565b5b600082013567ffffffffffffffff811115611a1257611a116116d9565b5b611a1e848285016119b0565b91505092915050565b6000819050919050565b611a3a81611a27565b82525050565b6000602082019050611a556000830184611a31565b92915050565b600067ffffffffffffffff82169050919050565b611a7881611a5b565b8114611a8357600080fd5b50565b600081359050611a9581611a6f565b92915050565b600060e08284031215611ab157611ab06117a0565b5b611abb60e0611754565b9050600082013567ffffffffffffffff811115611adb57611ada6117a5565b5b611ae78482850161188f565b6000830152506020611afb848285016117f3565b602083015250604082013567ffffffffffffffff811115611b1f57611b1e6117a5565b5b611b2b8482850161188f565b604083015250606082013567ffffffffffffffff811115611b4f57611b4e6117a5565b5b611b5b848285016119b0565b606083015250608082013567ffffffffffffffff811115611b7f57611b7e6117a5565b5b611b8b8482850161188f565b60808301525060a0611b9f84828501611a86565b60a08301525060c082013567ffffffffffffffff811115611bc357611bc26117a5565b5b611bcf8482850161188f565b60c08301525092915050565b600067ffffffffffffffff821115611bf657611bf56116f4565b5b611bff826116e3565b9050602081019050919050565b6000611c1f611c1a84611bdb565b611754565b905082815260208101848484011115611c3b57611c3a611808565b5b611c4684828561183e565b509392505050565b600082601f830112611c6357611c626116de565b5b8135611c73848260208601611c0c565b91505092915050565b60008060408385031215611c9357611c926116d4565b5b600083013567ffffffffffffffff811115611cb157611cb06116d9565b5b611cbd85828601611a9b565b925050602083013567ffffffffffffffff811115611cde57611cdd6116d9565b5b611cea85828601611c4e565b9150509250929050565b611cfd816117ca565b82525050565b6000602082019050611d186000830184611cf4565b92915050565b600060208284031215611d3457611d336116d4565b5b600082013567ffffffffffffffff811115611d5257611d516116d9565b5b611d5e84828501611a9b565b91505092915050565b600081519050919050565b600082825260208201905092915050565b60005b83811015611da1578082015181840152602081019050611d86565b60008484015250505050565b6000611db882611d67565b611dc28185611d72565b9350611dd2818560208601611d83565b611ddb816116e3565b840191505092915050565b600081519050919050565b600082825260208201905092915050565b6000611e0d82611de6565b611e178185611df1565b9350611e27818560208601611d83565b611e30816116e3565b840191505092915050565b611e44816117ca565b82525050565b600081519050919050565b600082825260208201905092915050565b6000819050602082019050919050565b6000604083016000830151611e8e6000860182611e3b565b5060208301518482036020860152611ea68282611e02565b9150508091505092915050565b6000611ebf8383611e76565b905092915050565b6000602082019050919050565b6000611edf82611e4a565b611ee98185611e55565b935083602082028501611efb85611e66565b8060005b85811015611f375784840389528151611f188582611eb3565b9450611f2383611ec7565b925060208a01995050600181019050611eff565b50829750879550505050505092915050565b611f5281611a5b565b82525050565b600060e0830160008301518482036000860152611f758282611e02565b9150506020830151611f8a6020860182611e3b565b5060408301518482036040860152611fa28282611e02565b91505060608301518482036060860152611fbc8282611ed4565b91505060808301518482036080860152611fd68282611e02565b91505060a0830151611feb60a0860182611f49565b5060c083015184820360c08601526120038282611e02565b9150508091505092915050565b6000606083016000830151848203600086015261202d8282611dad565b915050602083015184820360208601526120478282611e02565b915050604083015184820360408601526120618282611f58565b9150508091505092915050565b600060208201905081810360008301526120888184612010565b905092915050565b6000806000606084860312156120a9576120a86116d4565b5b600084013567ffffffffffffffff8111156120c7576120c66116d9565b5b6120d386828701611a9b565b935050602084013567ffffffffffffffff8111156120f4576120f36116d9565b5b61210086828701611c4e565b925050604084013567ffffffffffffffff811115612121576121206116d9565b5b61212d8682870161188f565b9150509250925092565b61214081611a27565b811461214b57600080fd5b50565b60008135905061215d81612137565b92915050565b600060208284031215612179576121786116d4565b5b60006121878482850161214e565b91505092915050565b600082825260208201905092915050565b60006121ac82611de6565b6121b68185612190565b93506121c6818560208601611d83565b6121cf816116e3565b840191505092915050565b600060208201905081810360008301526121f481846121a1565b905092915050565b6000819050919050565b61220f816121fc565b811461221a57600080fd5b50565b60008135905061222c81612206565b92915050565b60008060408385031215612249576122486116d4565b5b6000612257858286016117f3565b92505060206122688582860161221d565b9150509250929050565b6000604082019050818103600083015261228c81856121a1565b905081810360208301526122a081846121a1565b90509392505050565b6000602082840312156122bf576122be6116d4565b5b60006122cd848285016117f3565b91505092915050565b600080604083850312156122ed576122ec6116d4565b5b600083013567ffffffffffffffff81111561230b5761230a6116d9565b5b6123178582860161188f565b925050602083013567ffffffffffffffff811115612338576123376116d9565b5b6123448582860161188f565b9150509250929050565b7f4e487b7100000000000000000000000000000000000000000000000000000000600052603260045260246000fd5b600081905092915050565b600061239382611d67565b61239d818561237d565b93506123ad818560208601611d83565b80840191505092915050565b6000819050919050565b6123d46123cf82611a27565b6123b9565b82525050565b60006123e68285612388565b91506123f282846123c3565b6020820191508190509392505050565b7f4e487b7100000000000000000000000000000000000000000000000000000000600052601160045260246000fd5b600061243c826121fc565b91507fffffffffffffffffffffffffffffffffffffffffffffffffffffffffffffffff820361246e5761246d612402565b5b600182019050919050565b600081905092915050565b7f1901000000000000000000000000000000000000000000000000000000000000600082015250565b60006124ba600283612479565b91506124c582612484565b600282019050919050565b60006124db826124ad565b91506124e782856123c3565b6020820191506124f782846123c3565b6020820191508190509392505050565b600060e08301600083015184820360008601526125248282611e02565b91505060208301516125396020860182611e3b565b50604083015184820360408601526125518282611e02565b9150506060830151848203606086015261256b8282611ed4565b915050608083015184820360808601526125858282611e02565b91505060a083015161259a60a0860182611f49565b5060c083015184820360c08601526125b28282611e02565b9150508091505092915050565b600060208201905081810360008301526125d98184612507565b905092915050565b7f4e487b7100000000000000000000000000000000000000000000000000000000600052602260045260246000fd5b6000600282049050600182168061262857607f821691505b60208210810361263b5761263a6125e1565b5b50919050565b600061265461264f84611bdb565b611754565b9050828152602081018484840111156126705761266f611808565b5b61267b848285611d83565b509392505050565b600082601f830112612698576126976116de565b5b81516126a8848260208601612641565b91505092915050565b60006126c46126bf8461180d565b611754565b9050828152602081018484840111156126e0576126df611808565b5b6126eb848285611d83565b509392505050565b600082601f830112612708576127076116de565b5b81516127188482602086016126b1565b91505092915050565b600081519050612730816117dc565b92915050565b60006040828403121561274c5761274b6117a0565b5b6127566040611754565b9050600061276684828501612721565b600083015250602082015167ffffffffffffffff81111561278a576127896117a5565b5b612796848285016126f3565b60208301525092915050565b60006127b56127b08461176f565b611754565b905080838252602082019050602084028301858111156127d8576127d761179b565b5b835b8181101561281f57805167ffffffffffffffff8111156127fd576127fc6116de565b5b80860161280a8982612736565b855260208501945050506020810190506127da565b5050509392505050565b600082601f83011261283e5761283d6116de565b5b815161284e8482602086016127a2565b91505092915050565b60008151905061286681611a6f565b92915050565b600060e08284031215612882576128816117a0565b5b61288c60e0611754565b9050600082015167ffffffffffffffff8111156128ac576128ab6117a5565b5b6128b8848285016126f3565b60008301525060206128cc84828501612721565b602083015250604082015167ffffffffffffffff8111156128f0576128ef6117a5565b5b6128fc848285016126f3565b604083015250606082015167ffffffffffffffff8111156129205761291f6117a5565b5b61292c84828501612829565b606083015250608082015167ffffffffffffffff8111156129505761294f6117a5565b5b61295c848285016126f3565b60808301525060a061297084828501612857565b60a08301525060c082015167ffffffffffffffff811115612994576129936117a5565b5b6129a0848285016126f3565b60c08301525092915050565b6000606082840312156129c2576129c16117a0565b5b6129cc6060611754565b9050600082015167ffffffffffffffff8111156129ec576129eb6117a5565b5b6129f884828501612683565b600083015250602082015167ffffffffffffffff811115612a1c57612a1b6117a5565b5b612a28848285016126f3565b602083015250604082015167ffffffffffffffff811115612a4c57612a4b6117a5565b5b612a588482850161286c565b60408301525092915050565b600060208284031215612a7a57612a796116d4565b5b600082015167ffffffffffffffff811115612a9857612a976116d9565b5b612aa4848285016129ac565b91505092915050565b7f496e76616c6964207369676e6174757265000000000000000000000000000000600082015250565b6000612ae3601183612190565b9150612aee82612aad565b602082019050919050565b60006020820190508181036000830152612b1281612ad6565b9050919050565b612b2281611a5b565b82525050565b600061010082019050612b3e600083018b611a31565b612b4b602083018a611a31565b612b586040830189611cf4565b612b656060830188611a31565b612b726080830187611a31565b612b7f60a0830186611a31565b612b8c60c0830185612b19565b612b9960e0830184611a31565b9998505050505050505050565b7f4f776e61626c653a206e6577206f776e657220697320746865207a65726f206160008201527f6464726573730000000000000000000000000000000000000000000000000000602082015250565b6000612c02602683612190565b9150612c0d82612ba6565b604082019050919050565b60006020820190508181036000830152612c3181612bf5565b9050919050565b6000606082019050612c4d6000830186611a31565b612c5a6020830185611cf4565b612c676040830184611a31565b949350505050565b6000606082019050612c846000830186611a31565b612c916020830185611a31565b612c9e6040830184611a31565b949350505050565b7f496e76616c6964206e616d650000000000000000000000000000000000000000600082015250565b6000612cdc600c83612190565b9150612ce782612ca6565b602082019050919050565b60006020820190508181036000830152612d0b81612ccf565b9050919050565b600082825260208201905092915050565b6000612d2e82611de6565b612d388185612d12565b9350612d48818560208601611d83565b612d51816116e3565b840191505092915050565b60006020820190508181036000830152612d768184612d23565b905092915050565b600081519050612d8d81612206565b92915050565b600060208284031215612da957612da86116d4565b5b6000612db784828501612d7e565b91505092915050565b7f496e76616c696420434944206c656e6774680000000000000000000000000000600082015250565b6000612df6601283612190565b9150612e0182612dc0565b602082019050919050565b60006020820190508181036000830152612e2581612de9565b9050919050565b7f496e76616c696420617070000000000000000000000000000000000000000000600082015250565b6000612e62600b83612190565b9150612e6d82612e2c565b602082019050919050565b60006020820190508181036000830152612e9181612e55565b9050919050565b6000612ea3826121fc565b9150612eae836121fc565b9250828203905081811115612ec657612ec5612402565b5b92915050565b7f496e76616c69642074696d657374616d70000000000000000000000000000000600082015250565b6000612f02601183612190565b9150612f0d82612ecc565b602082019050919050565b60006020820190508181036000830152612f3181612ef5565b9050919050565b7f496e76616c6964207369676e6572000000000000000000000000000000000000600082015250565b6000612f6e600e83612190565b9150612f7982612f38565b602082019050919050565b60006020820190508181036000830152612f9d81612f61565b9050919050565b60008190508160005260206000209050919050565b60006020601f8301049050919050565b600082821b905092915050565b6000600883026130067fffffffffffffffffffffffffffffffffffffffffffffffffffffffffffffffff82612fc9565b6130108683612fc9565b95508019841693508086168417925050509392505050565b6000819050919050565b600061304d613048613043846121fc565b613028565b6121fc565b9050919050565b6000819050919050565b61306783613032565b61307b61307382613054565b848454612fd6565b825550505050565b600090565b613090613083565b61309b81848461305e565b505050565b5b818110156130bf576130b4600082613088565b6001810190506130a1565b5050565b601f821115613104576130d581612fa4565b6130de84612fb9565b810160208510156130ed578190505b6131016130f985612fb9565b8301826130a0565b50505b505050565b600082821c905092915050565b600061312760001984600802613109565b1980831691505092915050565b60006131408383613116565b9150826002028217905092915050565b61315982611d67565b67ffffffffffffffff811115613172576131716116f4565b5b61317c8254612610565b6131878282856130c3565b600060209050601f8311600181146131ba57600084156131a8578287015190505b6131b28582613134565b86555061321a565b601f1984166131c886612fa4565b60005b828110156131f0578489015182556001820191506020850194506020810190506131cb565b8683101561320d5784890151613209601f891682613116565b8355505b6001600288020188555050505b505050505050565b600081905092915050565b600061323882611de6565b6132428185613222565b9350613252818560208601611d83565b61325b816116e3565b840191505092915050565b6000613272838361322d565b905092915050565b613283816117ca565b82525050565b6000613295838361327a565b60208301905092915050565b600081905092915050565b600080830160008301516132c08582613289565b94505060208301516132d28582613266565b9450508391505092915050565b60006132eb83836132ac565b905092915050565b60006132fe82611e4a565b61330881856132a1565b935061331383611e66565b8060005b8381101561334457815161332b88826132df565b975061333683611ec7565b925050600181019050613317565b5085935050505092915050565b600061335d83836132f3565b905092915050565b61336e81611a5b565b82525050565b60006133808383613365565b60208301905092915050565b600080830160008301516133a08582613266565b94505060208301516133b28582613289565b94505060408301516133c48582613266565b94505060608301516133d68582613351565b94505060808301516133e88582613266565b94505060a08301516133fa8582613374565b94505060c083015161340c8582613266565b9450508391505092915050565b6000613425828461338c565b915081905092915050565b7f4f776e61626c653a2063616c6c6572206973206e6f7420746865206f776e6572600082015250565b6000613466602083612190565b915061347182613430565b602082019050919050565b6000602082019050818103600083015261349581613459565b9050919050565b60007fffffffff0000000000000000000000000000000000000000000000000000000082169050919050565b6134d18161349c565b82525050565b60006020820190506134ec60008301846134c8565b92915050565b7f4e487b7100000000000000000000000000000000000000000000000000000000600052602160045260246000fd5b7f45434453413a20696e76616c6964207369676e61747572650000000000000000600082015250565b6000613557601883612190565b915061356282613521565b602082019050919050565b600060208201905081810360008301526135868161354a565b9050919050565b7f45434453413a20696e76616c6964207369676e6174757265206c656e67746800600082015250565b60006135c3601f83612190565b91506135ce8261358d565b602082019050919050565b600060208201905081810360008301526135f2816135b6565b9050919050565b7f45434453413a20696e76616c6964207369676e6174757265202773272076616c60008201527f7565000000000000000000000000000000000000000000000000000000000000602082015250565b6000613655602283612190565b9150613660826135f9565b604082019050919050565b6000602082019050818103600083015261368481613648565b9050919050565b600061369682611de6565b6136a08185612479565b93506136b0818560208601611d83565b80840191505092915050565b60006136c8828461368b565b915081905092915050565b600060ff82169050919050565b6136e9816136d3565b82525050565b60006080820190506137046000830187611a31565b61371160208301866136e0565b61371e6040830185611a31565b61372b6060830184611a31565b9594505050505056fea264697066735822122028b4cbc3fa6a76c6bc1d7deebfb38a70b918a5157553d07f3cb86a0cf549e6df64736f6c63430008120033",
  "deployedBytecode": "0x608060405234801561001057600080fd5b50600436106100f55760003560e01c806376fb3efd11610097578063bdc5779e11610066578063bdc5779e146102ac578063c2fb26a6146102dc578063f2fde38b146102fb578063fdf925e514610317576100f5565b806376fb3efd146102105780638da5cb5b14610240578063acbb20a61461025e578063bbc1e2f71461027c576100f5565b8063620622a1116100d3578063620622a11461018a5780636d0b7fe0146101a65780636e0bb65d146101d6578063715018a614610206576100f5565b80631afee7f5146100fa5780635411cdad1461012a5780635e3e4f941461015a575b600080fd5b610114600480360381019061010f91906119de565b610347565b6040516101219190611a40565b60405180910390f35b610144600480360381019061013f9190611c7c565b6103c1565b6040516101519190611d03565b60405180910390f35b610174600480360381019061016f9190611d1e565b6104a5565b604051610181919061206e565b60405180910390f35b6101a4600480360381019061019f9190612090565b610589565b005b6101c060048036038101906101bb9190612163565b610626565b6040516101cd91906121da565b60405180910390f35b6101f060048036038101906101eb9190612163565b6106c6565b6040516101fd91906121da565b60405180910390f35b61020e610766565b005b61022a60048036038101906102259190612163565b61077a565b60405161023791906121da565b60405180910390f35b61024861081a565b6040516102559190611d03565b60405180910390f35b610266610843565b6040516102739190611d03565b60405180910390f35b61029660048036038101906102919190612232565b610869565b6040516102a39190611a40565b60405180910390f35b6102c660048036038101906102c19190611d1e565b61089a565b6040516102d39190611a40565b60405180910390f35b6102e461093d565b6040516102f2929190612272565b60405180910390f35b610315600480360381019061031091906122a9565b610a5f565b005b610331600480360381019061032c91906122d6565b610ae2565b60405161033e91906121da565b60405180910390f35b6000606060005b83518110156103b0578161037b85838151811061036e5761036d61234e565b5b6020026020010151610c08565b60405160200161038c9291906123da565b604051602081830303815290604052915080806103a890612431565b91505061034e565b508080519060200120915050919050565b60008061044b60405180604001604052806040518060400160405280600781526020017f64616f7369676e0000000000000000000000000000000000000000000000000081525081526020016040518060400160405280600581526020017f302e312e30000000000000000000000000000000000000000000000000000000815250815250610c70565b905060006104588561089a565b90506000828260405160200161046f9291906124d0565b60405160208183030381529060405280519060200120905061049a8582610cdf90919063ffffffff16565b935050505092915050565b6104ad611646565b60066000836040516020016104c291906125bf565b60405160208183030381529060405280519060200120815260200190815260200160002080546104f190612610565b80601f016020809104026020016040519081016040528092919081815260200182805461051d90612610565b801561056a5780601f1061053f5761010080835404028352916020019161056a565b820191906000526020600020905b81548152906001019060200180831161054d57829003601f168201915b50505050508060200190518101906105829190612a64565b9050919050565b826020015173ffffffffffffffffffffffffffffffffffffffff166105ae84846103c1565b73ffffffffffffffffffffffffffffffffffffffff1614610604576040517f08c379a00000000000000000000000000000000000000000000000000000000081526004016105fb90612af9565b60405180910390fd5b61060d83610d06565b61061657600080fd5b610621838383611014565b505050565b6004602052806000526040600020600091509050805461064590612610565b80601f016020809104026020016040519081016040528092919081815260200182805461067190612610565b80156106be5780601f10610693576101008083540402835291602001916106be565b820191906000526020600020905b8154815290600101906020018083116106a157829003601f168201915b505050505081565b600360205280600052604060002060009150905080546106e590612610565b80601f016020809104026020016040519081016040528092919081815260200182805461071190612610565b801561075e5780601f106107335761010080835404028352916020019161075e565b820191906000526020600020905b81548152906001019060200180831161074157829003601f168201915b505050505081565b61076e61114b565b61077860006111c9565b565b6005602052806000526040600020600091509050805461079990612610565b80601f01602080910402602001604051908101604052809291908181526020018280546107c590612610565b80156108125780601f106107e757610100808354040283529160200191610812565b820191906000526020600020905b8154815290600101906020018083116107f557829003601f168201915b505050505081565b60008060009054906101000a900473ffffffffffffffffffffffffffffffffffffffff16905090565b600160009054906101000a900473ffffffffffffffffffffffffffffffffffffffff1681565b6007602052816000526040600020818154811061088557600080fd5b90600052602060002001600091509150505481565b6000807f2e1787b39b12d39a11d61d71f3da25d1061d7f8a84df10ac9bb5505fb6756e7e83600001518051906020012084602001518560400151805190602001206108e88760600151610347565b8760800151805190602001208860a001518960c001518051906020012060405160200161091c989796959493929190612b28565b60405160208183030381529060405290508080519060200120915050919050565b600880600001805461094e90612610565b80601f016020809104026020016040519081016040528092919081815260200182805461097a90612610565b80156109c75780601f1061099c576101008083540402835291602001916109c7565b820191906000526020600020905b8154815290600101906020018083116109aa57829003601f168201915b5050505050908060010180546109dc90612610565b80601f0160208091040260200160405190810160405280929190818152602001828054610a0890612610565b8015610a555780601f10610a2a57610100808354040283529160200191610a55565b820191906000526020600020905b815481529060010190602001808311610a3857829003601f168201915b5050505050905082565b610a6761114b565b600073ffffffffffffffffffffffffffffffffffffffff168173ffffffffffffffffffffffffffffffffffffffff1603610ad6576040517f08c379a0000000000000000000000000000000000000000000000000000000008152600401610acd90612c18565b60405180910390fd5b610adf816111c9565b50565b60028280516020810182018051848252602083016020850120818352809550505050505081805160208101820180518482526020830160208501208183528095505050505050600091509150508054610b3a90612610565b80601f0160208091040260200160405190810160405280929190818152602001828054610b6690612610565b8015610bb35780601f10610b8857610100808354040283529160200191610bb3565b820191906000526020600020905b815481529060010190602001808311610b9657829003601f168201915b505050505081565b6000610be7827f01ffc9a70000000000000000000000000000000000000000000000000000000061128d565b8015610c015750610bff8263ffffffff60e01b61128d565b155b9050919050565b6000807f67aa40d26f889f44ec5fecd21b812b43af0974bbc5e74283b01e36ceb272966f8360000151846020015180519060200120604051602001610c4f93929190612c38565b60405160208183030381529060405290508080519060200120915050919050565b6000807fb03948446334eb9b2196d5eb166f69b9d49403eb4a12f36de8d3f9f3cb8e15c3836000015180519060200120846020015180519060200120604051602001610cbe93929190612c6f565b60405160208183030381529060405290508080519060200120915050919050565b6000806000610cee858561134c565b91509150610cfb8161139d565b819250505092915050565b6000610d546040518060400160405280601281526020017f50726f6f662d6f662d417574686f726974790000000000000000000000000000815250836000015161150390919063ffffffff16565b610d93576040517f08c379a0000000000000000000000000000000000000000000000000000000008152600401610d8a90612cf2565b60405180910390fd5b602e826040015173__$010b943296133a43821a132050619653d2$__63436a66e790916040518263ffffffff1660e01b8152600401610dd29190612d5c565b602060405180830381865af4158015610def573d6000803e3d6000fd5b505050506040513d601f19601f82011682018060405250810190610e139190612d93565b14610e53576040517f08c379a0000000000000000000000000000000000000000000000000000000008152600401610e4a90612e0c565b60405180910390fd5b610e9f6040518060400160405280600781526020017f64616f7369676e00000000000000000000000000000000000000000000000000815250836080015161150390919063ffffffff16565b610ede576040517f08c379a0000000000000000000000000000000000000000000000000000000008152600401610ed590612e78565b60405180910390fd5b428260a0015167ffffffffffffffff1611158015610f175750612a3042610f059190612e98565b8260a0015167ffffffffffffffff1610155b610f56576040517f08c379a0000000000000000000000000000000000000000000000000000000008152600401610f4d90612f18565b60405180910390fd5b60005b82606001515181101561100a57600073ffffffffffffffffffffffffffffffffffffffff1683606001518281518110610f9557610f9461234e565b5b60200260200101516000015173ffffffffffffffffffffffffffffffffffffffff1603610ff7576040517f08c379a0000000000000000000000000000000000000000000000000000000008152600401610fee90612f84565b60405180910390fd5b808061100290612431565b915050610f59565b5060019050919050565b60008360405160200161102791906125bf565b60405160208183030381529060405280519060200120905060405180606001604052808481526020018381526020018581525060405160200161106a919061206e565b6040516020818303038152906040526006600083815260200190815260200160002090816110989190613150565b5060076000856020015173ffffffffffffffffffffffffffffffffffffffff1673ffffffffffffffffffffffffffffffffffffffff168152602001908152602001600020819080600181540180825580915050600190039060005260206000200160009091909190915055836040516111119190613419565b60405180910390207fa964d7c3eb8968ce8f7c6c887dd351c670e547ba865ae23ab238389982000c0260405160405180910390a250505050565b61115361155c565b73ffffffffffffffffffffffffffffffffffffffff1661117161081a565b73ffffffffffffffffffffffffffffffffffffffff16146111c7576040517f08c379a00000000000000000000000000000000000000000000000000000000081526004016111be9061347c565b60405180910390fd5b565b60008060009054906101000a900473ffffffffffffffffffffffffffffffffffffffff169050816000806101000a81548173ffffffffffffffffffffffffffffffffffffffff021916908373ffffffffffffffffffffffffffffffffffffffff1602179055508173ffffffffffffffffffffffffffffffffffffffff168173ffffffffffffffffffffffffffffffffffffffff167f8be0079c531659141344cd1fd0a4f28419497f9722a3daafe3b4186f6b6457e060405160405180910390a35050565b6000806301ffc9a760e01b836040516024016112a991906134d7565b604051602081830303815290604052907bffffffffffffffffffffffffffffffffffffffffffffffffffffffff19166020820180517bffffffffffffffffffffffffffffffffffffffffffffffffffffffff838183161783525050505090506000806000602060008551602087018a617530fa92503d91506000519050828015611334575060208210155b80156113405750600081115b94505050505092915050565b600080604183510361138d5760008060006020860151925060408601519150606086015160001a905061138187828585611564565b94509450505050611396565b60006002915091505b9250929050565b600060048111156113b1576113b06134f2565b5b8160048111156113c4576113c36134f2565b5b031561150057600160048111156113de576113dd6134f2565b5b8160048111156113f1576113f06134f2565b5b03611431576040517f08c379a00000000000000000000000000000000000000000000000000000000081526004016114289061356d565b60405180910390fd5b60026004811115611445576114446134f2565b5b816004811115611458576114576134f2565b5b03611498576040517f08c379a000000000000000000000000000000000000000000000000000000000815260040161148f906135d9565b60405180910390fd5b600360048111156114ac576114ab6134f2565b5b8160048111156114bf576114be6134f2565b5b036114ff576040517f08c379a00000000000000000000000000000000000000000000000000000000081526004016114f69061366b565b60405180910390fd5b5b50565b60008160405160200161151691906136bc565b604051602081830303815290604052805190602001208360405160200161153d91906136bc565b6040516020818303038152906040528051906020012014905092915050565b600033905090565b6000807f7fffffffffffffffffffffffffffffff5d576e7357a4501ddfe92f46681b20a08360001c111561159f57600060039150915061163d565b6000600187878787604051600081526020016040526040516115c494939291906136ef565b6020604051602081039080840390855afa1580156115e6573d6000803e3d6000fd5b505050602060405103519050600073ffffffffffffffffffffffffffffffffffffffff168173ffffffffffffffffffffffffffffffffffffffff16036116345760006001925092505061163d565b80600092509250505b94509492505050565b6040518060600160405280606081526020016060815260200161166761166d565b81525090565b6040518060e0016040528060608152602001600073ffffffffffffffffffffffffffffffffffffffff168152602001606081526020016060815260200160608152602001600067ffffffffffffffff168152602001606081525090565b6000604051905090565b600080fd5b600080fd5b600080fd5b6000601f19601f8301169050919050565b7f4e487b7100000000000000000000000000000000000000000000000000000000600052604160045260246000fd5b61172c826116e3565b810181811067ffffffffffffffff8211171561174b5761174a6116f4565b5b80604052505050565b600061175e6116ca565b905061176a8282611723565b919050565b600067ffffffffffffffff82111561178a576117896116f4565b5b602082029050602081019050919050565b600080fd5b600080fd5b600080fd5b600073ffffffffffffffffffffffffffffffffffffffff82169050919050565b60006117d5826117aa565b9050919050565b6117e5816117ca565b81146117f057600080fd5b50565b600081359050611802816117dc565b92915050565b600080fd5b600067ffffffffffffffff821115611828576118276116f4565b5b611831826116e3565b9050602081019050919050565b82818337600083830152505050565b600061186061185b8461180d565b611754565b90508281526020810184848401111561187c5761187b611808565b5b61188784828561183e565b509392505050565b600082601f8301126118a4576118a36116de565b5b81356118b484826020860161184d565b91505092915050565b6000604082840312156118d3576118d26117a0565b5b6118dd6040611754565b905060006118ed848285016117f3565b600083015250602082013567ffffffffffffffff811115611911576119106117a5565b5b61191d8482850161188f565b60208301525092915050565b600061193c6119378461176f565b611754565b9050808382526020820190506020840283018581111561195f5761195e61179b565b5b835b818110156119a657803567ffffffffffffffff811115611984576119836116de565b5b80860161199189826118bd565b85526020850194505050602081019050611961565b5050509392505050565b600082601f8301126119c5576119c46116de565b5b81356119d5848260208601611929565b91505092915050565b6000602082840312156119f4576119f36116d4565b5b600082013567ffffffffffffffff811115611a1257611a116116d9565b5b611a1e848285016119b0565b91505092915050565b6000819050919050565b611a3a81611a27565b82525050565b6000602082019050611a556000830184611a31565b92915050565b600067ffffffffffffffff82169050919050565b611a7881611a5b565b8114611a8357600080fd5b50565b600081359050611a9581611a6f565b92915050565b600060e08284031215611ab157611ab06117a0565b5b611abb60e0611754565b9050600082013567ffffffffffffffff811115611adb57611ada6117a5565b5b611ae78482850161188f565b6000830152506020611afb848285016117f3565b602083015250604082013567ffffffffffffffff811115611b1f57611b1e6117a5565b5b611b2b8482850161188f565b604083015250606082013567ffffffffffffffff811115611b4f57611b4e6117a5565b5b611b5b848285016119b0565b606083015250608082013567ffffffffffffffff811115611b7f57611b7e6117a5565b5b611b8b8482850161188f565b60808301525060a0611b9f84828501611a86565b60a08301525060c082013567ffffffffffffffff811115611bc357611bc26117a5565b5b611bcf8482850161188f565b60c08301525092915050565b600067ffffffffffffffff821115611bf657611bf56116f4565b5b611bff826116e3565b9050602081019050919050565b6000611c1f611c1a84611bdb565b611754565b905082815260208101848484011115611c3b57611c3a611808565b5b611c4684828561183e565b509392505050565b600082601f830112611c6357611c626116de565b5b8135611c73848260208601611c0c565b91505092915050565b60008060408385031215611c9357611c926116d4565b5b600083013567ffffffffffffffff811115611cb157611cb06116d9565b5b611cbd85828601611a9b565b925050602083013567ffffffffffffffff811115611cde57611cdd6116d9565b5b611cea85828601611c4e565b9150509250929050565b611cfd816117ca565b82525050565b6000602082019050611d186000830184611cf4565b92915050565b600060208284031215611d3457611d336116d4565b5b600082013567ffffffffffffffff811115611d5257611d516116d9565b5b611d5e84828501611a9b565b91505092915050565b600081519050919050565b600082825260208201905092915050565b60005b83811015611da1578082015181840152602081019050611d86565b60008484015250505050565b6000611db882611d67565b611dc28185611d72565b9350611dd2818560208601611d83565b611ddb816116e3565b840191505092915050565b600081519050919050565b600082825260208201905092915050565b6000611e0d82611de6565b611e178185611df1565b9350611e27818560208601611d83565b611e30816116e3565b840191505092915050565b611e44816117ca565b82525050565b600081519050919050565b600082825260208201905092915050565b6000819050602082019050919050565b6000604083016000830151611e8e6000860182611e3b565b5060208301518482036020860152611ea68282611e02565b9150508091505092915050565b6000611ebf8383611e76565b905092915050565b6000602082019050919050565b6000611edf82611e4a565b611ee98185611e55565b935083602082028501611efb85611e66565b8060005b85811015611f375784840389528151611f188582611eb3565b9450611f2383611ec7565b925060208a01995050600181019050611eff565b50829750879550505050505092915050565b611f5281611a5b565b82525050565b600060e0830160008301518482036000860152611f758282611e02565b9150506020830151611f8a6020860182611e3b565b5060408301518482036040860152611fa28282611e02565b91505060608301518482036060860152611fbc8282611ed4565b91505060808301518482036080860152611fd68282611e02565b91505060a0830151611feb60a0860182611f49565b5060c083015184820360c08601526120038282611e02565b9150508091505092915050565b6000606083016000830151848203600086015261202d8282611dad565b915050602083015184820360208601526120478282611e02565b915050604083015184820360408601526120618282611f58565b9150508091505092915050565b600060208201905081810360008301526120888184612010565b905092915050565b6000806000606084860312156120a9576120a86116d4565b5b600084013567ffffffffffffffff8111156120c7576120c66116d9565b5b6120d386828701611a9b565b935050602084013567ffffffffffffffff8111156120f4576120f36116d9565b5b61210086828701611c4e565b925050604084013567ffffffffffffffff811115612121576121206116d9565b5b61212d8682870161188f565b9150509250925092565b61214081611a27565b811461214b57600080fd5b50565b60008135905061215d81612137565b92915050565b600060208284031215612179576121786116d4565b5b60006121878482850161214e565b91505092915050565b600082825260208201905092915050565b60006121ac82611de6565b6121b68185612190565b93506121c6818560208601611d83565b6121cf816116e3565b840191505092915050565b600060208201905081810360008301526121f481846121a1565b905092915050565b6000819050919050565b61220f816121fc565b811461221a57600080fd5b50565b60008135905061222c81612206565b92915050565b60008060408385031215612249576122486116d4565b5b6000612257858286016117f3565b92505060206122688582860161221d565b9150509250929050565b6000604082019050818103600083015261228c81856121a1565b905081810360208301526122a081846121a1565b90509392505050565b6000602082840312156122bf576122be6116d4565b5b60006122cd848285016117f3565b91505092915050565b600080604083850312156122ed576122ec6116d4565b5b600083013567ffffffffffffffff81111561230b5761230a6116d9565b5b6123178582860161188f565b925050602083013567ffffffffffffffff811115612338576123376116d9565b5b6123448582860161188f565b9150509250929050565b7f4e487b7100000000000000000000000000000000000000000000000000000000600052603260045260246000fd5b600081905092915050565b600061239382611d67565b61239d818561237d565b93506123ad818560208601611d83565b80840191505092915050565b6000819050919050565b6123d46123cf82611a27565b6123b9565b82525050565b60006123e68285612388565b91506123f282846123c3565b6020820191508190509392505050565b7f4e487b7100000000000000000000000000000000000000000000000000000000600052601160045260246000fd5b600061243c826121fc565b91507fffffffffffffffffffffffffffffffffffffffffffffffffffffffffffffffff820361246e5761246d612402565b5b600182019050919050565b600081905092915050565b7f1901000000000000000000000000000000000000000000000000000000000000600082015250565b60006124ba600283612479565b91506124c582612484565b600282019050919050565b60006124db826124ad565b91506124e782856123c3565b6020820191506124f782846123c3565b6020820191508190509392505050565b600060e08301600083015184820360008601526125248282611e02565b91505060208301516125396020860182611e3b565b50604083015184820360408601526125518282611e02565b9150506060830151848203606086015261256b8282611ed4565b915050608083015184820360808601526125858282611e02565b91505060a083015161259a60a0860182611f49565b5060c083015184820360c08601526125b28282611e02565b9150508091505092915050565b600060208201905081810360008301526125d98184612507565b905092915050565b7f4e487b7100000000000000000000000000000000000000000000000000000000600052602260045260246000fd5b6000600282049050600182168061262857607f821691505b60208210810361263b5761263a6125e1565b5b50919050565b600061265461264f84611bdb565b611754565b9050828152602081018484840111156126705761266f611808565b5b61267b848285611d83565b509392505050565b600082601f830112612698576126976116de565b5b81516126a8848260208601612641565b91505092915050565b60006126c46126bf8461180d565b611754565b9050828152602081018484840111156126e0576126df611808565b5b6126eb848285611d83565b509392505050565b600082601f830112612708576127076116de565b5b81516127188482602086016126b1565b91505092915050565b600081519050612730816117dc565b92915050565b60006040828403121561274c5761274b6117a0565b5b6127566040611754565b9050600061276684828501612721565b600083015250602082015167ffffffffffffffff81111561278a576127896117a5565b5b612796848285016126f3565b60208301525092915050565b60006127b56127b08461176f565b611754565b905080838252602082019050602084028301858111156127d8576127d761179b565b5b835b8181101561281f57805167ffffffffffffffff8111156127fd576127fc6116de565b5b80860161280a8982612736565b855260208501945050506020810190506127da565b5050509392505050565b600082601f83011261283e5761283d6116de565b5b815161284e8482602086016127a2565b91505092915050565b60008151905061286681611a6f565b92915050565b600060e08284031215612882576128816117a0565b5b61288c60e0611754565b9050600082015167ffffffffffffffff8111156128ac576128ab6117a5565b5b6128b8848285016126f3565b60008301525060206128cc84828501612721565b602083015250604082015167ffffffffffffffff8111156128f0576128ef6117a5565b5b6128fc848285016126f3565b604083015250606082015167ffffffffffffffff8111156129205761291f6117a5565b5b61292c84828501612829565b606083015250608082015167ffffffffffffffff8111156129505761294f6117a5565b5b61295c848285016126f3565b60808301525060a061297084828501612857565b60a08301525060c082015167ffffffffffffffff811115612994576129936117a5565b5b6129a0848285016126f3565b60c08301525092915050565b6000606082840312156129c2576129c16117a0565b5b6129cc6060611754565b9050600082015167ffffffffffffffff8111156129ec576129eb6117a5565b5b6129f884828501612683565b600083015250602082015167ffffffffffffffff811115612a1c57612a1b6117a5565b5b612a28848285016126f3565b602083015250604082015167ffffffffffffffff811115612a4c57612a4b6117a5565b5b612a588482850161286c565b60408301525092915050565b600060208284031215612a7a57612a796116d4565b5b600082015167ffffffffffffffff811115612a9857612a976116d9565b5b612aa4848285016129ac565b91505092915050565b7f496e76616c6964207369676e6174757265000000000000000000000000000000600082015250565b6000612ae3601183612190565b9150612aee82612aad565b602082019050919050565b60006020820190508181036000830152612b1281612ad6565b9050919050565b612b2281611a5b565b82525050565b600061010082019050612b3e600083018b611a31565b612b4b602083018a611a31565b612b586040830189611cf4565b612b656060830188611a31565b612b726080830187611a31565b612b7f60a0830186611a31565b612b8c60c0830185612b19565b612b9960e0830184611a31565b9998505050505050505050565b7f4f776e61626c653a206e6577206f776e657220697320746865207a65726f206160008201527f6464726573730000000000000000000000000000000000000000000000000000602082015250565b6000612c02602683612190565b9150612c0d82612ba6565b604082019050919050565b60006020820190508181036000830152612c3181612bf5565b9050919050565b6000606082019050612c4d6000830186611a31565b612c5a6020830185611cf4565b612c676040830184611a31565b949350505050565b6000606082019050612c846000830186611a31565b612c916020830185611a31565b612c9e6040830184611a31565b949350505050565b7f496e76616c6964206e616d650000000000000000000000000000000000000000600082015250565b6000612cdc600c83612190565b9150612ce782612ca6565b602082019050919050565b60006020820190508181036000830152612d0b81612ccf565b9050919050565b600082825260208201905092915050565b6000612d2e82611de6565b612d388185612d12565b9350612d48818560208601611d83565b612d51816116e3565b840191505092915050565b60006020820190508181036000830152612d768184612d23565b905092915050565b600081519050612d8d81612206565b92915050565b600060208284031215612da957612da86116d4565b5b6000612db784828501612d7e565b91505092915050565b7f496e76616c696420434944206c656e6774680000000000000000000000000000600082015250565b6000612df6601283612190565b9150612e0182612dc0565b602082019050919050565b60006020820190508181036000830152612e2581612de9565b9050919050565b7f496e76616c696420617070000000000000000000000000000000000000000000600082015250565b6000612e62600b83612190565b9150612e6d82612e2c565b602082019050919050565b60006020820190508181036000830152612e9181612e55565b9050919050565b6000612ea3826121fc565b9150612eae836121fc565b9250828203905081811115612ec657612ec5612402565b5b92915050565b7f496e76616c69642074696d657374616d70000000000000000000000000000000600082015250565b6000612f02601183612190565b9150612f0d82612ecc565b602082019050919050565b60006020820190508181036000830152612f3181612ef5565b9050919050565b7f496e76616c6964207369676e6572000000000000000000000000000000000000600082015250565b6000612f6e600e83612190565b9150612f7982612f38565b602082019050919050565b60006020820190508181036000830152612f9d81612f61565b9050919050565b60008190508160005260206000209050919050565b60006020601f8301049050919050565b600082821b905092915050565b6000600883026130067fffffffffffffffffffffffffffffffffffffffffffffffffffffffffffffffff82612fc9565b6130108683612fc9565b95508019841693508086168417925050509392505050565b6000819050919050565b600061304d613048613043846121fc565b613028565b6121fc565b9050919050565b6000819050919050565b61306783613032565b61307b61307382613054565b848454612fd6565b825550505050565b600090565b613090613083565b61309b81848461305e565b505050565b5b818110156130bf576130b4600082613088565b6001810190506130a1565b5050565b601f821115613104576130d581612fa4565b6130de84612fb9565b810160208510156130ed578190505b6131016130f985612fb9565b8301826130a0565b50505b505050565b600082821c905092915050565b600061312760001984600802613109565b1980831691505092915050565b60006131408383613116565b9150826002028217905092915050565b61315982611d67565b67ffffffffffffffff811115613172576131716116f4565b5b61317c8254612610565b6131878282856130c3565b600060209050601f8311600181146131ba57600084156131a8578287015190505b6131b28582613134565b86555061321a565b601f1984166131c886612fa4565b60005b828110156131f0578489015182556001820191506020850194506020810190506131cb565b8683101561320d5784890151613209601f891682613116565b8355505b6001600288020188555050505b505050505050565b600081905092915050565b600061323882611de6565b6132428185613222565b9350613252818560208601611d83565b61325b816116e3565b840191505092915050565b6000613272838361322d565b905092915050565b613283816117ca565b82525050565b6000613295838361327a565b60208301905092915050565b600081905092915050565b600080830160008301516132c08582613289565b94505060208301516132d28582613266565b9450508391505092915050565b60006132eb83836132ac565b905092915050565b60006132fe82611e4a565b61330881856132a1565b935061331383611e66565b8060005b8381101561334457815161332b88826132df565b975061333683611ec7565b925050600181019050613317565b5085935050505092915050565b600061335d83836132f3565b905092915050565b61336e81611a5b565b82525050565b60006133808383613365565b60208301905092915050565b600080830160008301516133a08582613266565b94505060208301516133b28582613289565b94505060408301516133c48582613266565b94505060608301516133d68582613351565b94505060808301516133e88582613266565b94505060a08301516133fa8582613374565b94505060c083015161340c8582613266565b9450508391505092915050565b6000613425828461338c565b915081905092915050565b7f4f776e61626c653a2063616c6c6572206973206e6f7420746865206f776e6572600082015250565b6000613466602083612190565b915061347182613430565b602082019050919050565b6000602082019050818103600083015261349581613459565b9050919050565b60007fffffffff0000000000000000000000000000000000000000000000000000000082169050919050565b6134d18161349c565b82525050565b60006020820190506134ec60008301846134c8565b92915050565b7f4e487b7100000000000000000000000000000000000000000000000000000000600052602160045260246000fd5b7f45434453413a20696e76616c6964207369676e61747572650000000000000000600082015250565b6000613557601883612190565b915061356282613521565b602082019050919050565b600060208201905081810360008301526135868161354a565b9050919050565b7f45434453413a20696e76616c6964207369676e6174757265206c656e67746800600082015250565b60006135c3601f83612190565b91506135ce8261358d565b602082019050919050565b600060208201905081810360008301526135f2816135b6565b9050919050565b7f45434453413a20696e76616c6964207369676e6174757265202773272076616c60008201527f7565000000000000000000000000000000000000000000000000000000000000602082015250565b6000613655602283612190565b9150613660826135f9565b604082019050919050565b6000602082019050818103600083015261368481613648565b9050919050565b600061369682611de6565b6136a08185612479565b93506136b0818560208601611d83565b80840191505092915050565b60006136c8828461368b565b915081905092915050565b600060ff82169050919050565b6136e9816136d3565b82525050565b60006080820190506137046000830187611a31565b61371160208301866136e0565b61371e6040830185611a31565b61372b6060830184611a31565b9594505050505056fea264697066735822122028b4cbc3fa6a76c6bc1d7deebfb38a70b918a5157553d07f3cb86a0cf549e6df64736f6c63430008120033",
  "libraries": {
    "StringsExpanded": "0x377662a8588c20Bf94B3b5685d096FE1CdF70Ef6",
    "ProofsVerification": "0x9f413bA7fba12E1102aDFb421390Fd6f5E4AbEd6",
    "ProofsHelper": "0xDb04110AdbA966fA6Ce95975B940fA85E8D024EB",
    "ProofsMetadata": "0xf282509F9C5ACe2666163795119C52e738D0e198"
  },
  "devdoc": {
    "kind": "dev",
    "methods": {
      "owner()": {
        "details": "Returns the address of the current owner."
      },
      "renounceOwnership()": {
        "details": "Leaves the contract without owner. It will not be possible to call `onlyOwner` functions. Can only be called by the current owner. NOTE: Renouncing ownership will leave the contract without an owner, thereby disabling any functionality that is only available to the owner."
      },
      "transferOwnership(address)": {
        "details": "Transfers ownership of the contract to a new account (`newOwner`). Can only be called by the current owner."
      }
    },
    "version": 1
  },
  "userdoc": {
    "kind": "user",
    "methods": {
      "domain()": {
        "notice": "TODO: move to ProofsMetadata"
      }
    },
    "notice": "Stores DAOsign proofs. Note Proof-of-Authority = PoA Proof-of-Signature = PoS Proof-of-Agreement = PoAg",
    "version": 1
  },
  "storageLayout": {
    "storage": [
      {
        "astId": 7,
        "contract": "contracts/Proofs.sol:Proofs",
        "label": "_owner",
        "offset": 0,
        "slot": "0",
        "type": "t_address"
      },
      {
        "astId": 1973,
        "contract": "contracts/Proofs.sol:Proofs",
        "label": "proofsMetadata",
        "offset": 0,
        "slot": "1",
        "type": "t_address"
      },
      {
        "astId": 1979,
        "contract": "contracts/Proofs.sol:Proofs",
        "label": "finalProofs",
        "offset": 0,
        "slot": "2",
        "type": "t_mapping(t_string_memory_ptr,t_mapping(t_string_memory_ptr,t_string_storage))"
      },
      {
        "astId": 1983,
        "contract": "contracts/Proofs.sol:Proofs",
        "label": "poaData",
        "offset": 0,
        "slot": "3",
        "type": "t_mapping(t_bytes32,t_string_storage)"
      },
      {
        "astId": 1987,
        "contract": "contracts/Proofs.sol:Proofs",
        "label": "posData",
        "offset": 0,
        "slot": "4",
        "type": "t_mapping(t_bytes32,t_string_storage)"
      },
      {
        "astId": 1991,
        "contract": "contracts/Proofs.sol:Proofs",
        "label": "poagData",
        "offset": 0,
        "slot": "5",
        "type": "t_mapping(t_bytes32,t_string_storage)"
      },
      {
        "astId": 1995,
        "contract": "contracts/Proofs.sol:Proofs",
        "label": "proofs",
        "offset": 0,
        "slot": "6",
        "type": "t_mapping(t_bytes32,t_bytes_storage)"
      },
      {
        "astId": 2000,
        "contract": "contracts/Proofs.sol:Proofs",
        "label": "myProofKeys",
        "offset": 0,
        "slot": "7",
        "type": "t_mapping(t_address,t_array(t_bytes32)dyn_storage)"
      },
      {
        "astId": 2042,
        "contract": "contracts/Proofs.sol:Proofs",
        "label": "domain",
        "offset": 0,
        "slot": "8",
        "type": "t_struct(EIP712Domain)2809_storage"
      }
    ],
    "types": {
      "t_address": {
        "encoding": "inplace",
        "label": "address",
        "numberOfBytes": "20"
      },
      "t_array(t_bytes32)dyn_storage": {
        "base": "t_bytes32",
        "encoding": "dynamic_array",
        "label": "bytes32[]",
        "numberOfBytes": "32"
      },
      "t_bytes32": {
        "encoding": "inplace",
        "label": "bytes32",
        "numberOfBytes": "32"
      },
      "t_bytes_storage": {
        "encoding": "bytes",
        "label": "bytes",
        "numberOfBytes": "32"
      },
      "t_mapping(t_address,t_array(t_bytes32)dyn_storage)": {
        "encoding": "mapping",
        "key": "t_address",
        "label": "mapping(address => bytes32[])",
        "numberOfBytes": "32",
        "value": "t_array(t_bytes32)dyn_storage"
      },
      "t_mapping(t_bytes32,t_bytes_storage)": {
        "encoding": "mapping",
        "key": "t_bytes32",
        "label": "mapping(bytes32 => bytes)",
        "numberOfBytes": "32",
        "value": "t_bytes_storage"
      },
      "t_mapping(t_bytes32,t_string_storage)": {
        "encoding": "mapping",
        "key": "t_bytes32",
        "label": "mapping(bytes32 => string)",
        "numberOfBytes": "32",
        "value": "t_string_storage"
      },
      "t_mapping(t_string_memory_ptr,t_mapping(t_string_memory_ptr,t_string_storage))": {
        "encoding": "mapping",
        "key": "t_string_memory_ptr",
        "label": "mapping(string => mapping(string => string))",
        "numberOfBytes": "32",
        "value": "t_mapping(t_string_memory_ptr,t_string_storage)"
      },
      "t_mapping(t_string_memory_ptr,t_string_storage)": {
        "encoding": "mapping",
        "key": "t_string_memory_ptr",
        "label": "mapping(string => string)",
        "numberOfBytes": "32",
        "value": "t_string_storage"
      },
      "t_string_memory_ptr": {
        "encoding": "bytes",
        "label": "string",
        "numberOfBytes": "32"
      },
      "t_string_storage": {
        "encoding": "bytes",
        "label": "string",
        "numberOfBytes": "32"
      },
      "t_struct(EIP712Domain)2809_storage": {
        "encoding": "inplace",
        "label": "struct IProofs.EIP712Domain",
        "members": [
          {
            "astId": 2806,
            "contract": "contracts/Proofs.sol:Proofs",
            "label": "name",
            "offset": 0,
            "slot": "0",
            "type": "t_string_storage"
          },
          {
            "astId": 2808,
            "contract": "contracts/Proofs.sol:Proofs",
            "label": "version",
            "offset": 0,
            "slot": "1",
            "type": "t_string_storage"
          }
        ],
        "numberOfBytes": "64"
      }
    }
  }
}